{
  "abi": [
    {
      "inputs": [
        {
          "internalType": "address",
          "name": "_mailbox",
          "type": "address"
        },
        {
          "internalType": "address",
          "name": "_megaMaskAddress",
          "type": "address"
        }
      ],
      "stateMutability": "nonpayable",
      "type": "constructor"
    },
    {
      "anonymous": false,
      "inputs": [
        {
          "indexed": true,
          "internalType": "address",
          "name": "caller",
          "type": "address"
        },
        {
          "indexed": false,
          "internalType": "string[]",
          "name": "productPicCIDs",
          "type": "string[]"
        },
        {
          "indexed": false,
          "internalType": "string[]",
          "name": "productNames",
          "type": "string[]"
        },
        {
          "indexed": false,
          "internalType": "string[]",
          "name": "prices",
          "type": "string[]"
        }
      ],
      "name": "ReceivedAddMultipleProductsRequest",
      "type": "event"
    },
    {
      "anonymous": false,
      "inputs": [
        {
          "indexed": true,
          "internalType": "address",
          "name": "caller",
          "type": "address"
        },
        {
          "indexed": false,
          "internalType": "string",
          "name": "productPicCID",
          "type": "string"
        },
        {
          "indexed": false,
          "internalType": "string",
          "name": "productName",
          "type": "string"
        },
        {
          "indexed": false,
          "internalType": "string",
          "name": "price",
          "type": "string"
        }
      ],
      "name": "ReceivedAddProductRequest",
      "type": "event"
    },
    {
      "anonymous": false,
      "inputs": [
        {
          "indexed": true,
          "internalType": "uint32",
          "name": "origin",
          "type": "uint32"
        },
        {
          "indexed": true,
          "internalType": "bytes32",
          "name": "sender",
          "type": "bytes32"
        },
        {
          "indexed": false,
          "internalType": "string",
          "name": "message",
          "type": "string"
        }
      ],
      "name": "ReceivedMessage",
      "type": "event"
    },
    {
      "inputs": [
        {
          "internalType": "string[]",
          "name": "_productPicCIDs",
          "type": "string[]"
        },
        {
          "internalType": "string[]",
          "name": "_productNames",
          "type": "string[]"
        },
        {
          "internalType": "string[]",
          "name": "_prices",
          "type": "string[]"
        }
      ],
      "name": "addMultipleProducts",
      "outputs": [],
      "stateMutability": "payable",
      "type": "function"
    },
    {
      "inputs": [
        {
          "internalType": "string",
          "name": "_productPicCID",
          "type": "string"
        },
        {
          "internalType": "string",
          "name": "_productName",
          "type": "string"
        },
        {
          "internalType": "string",
          "name": "_price",
          "type": "string"
        }
      ],
      "name": "addProduct",
      "outputs": [],
      "stateMutability": "payable",
      "type": "function"
    },
    {
      "inputs": [],
      "name": "getInterchainSecurityModule",
      "outputs": [
        {
          "internalType": "address",
          "name": "",
          "type": "address"
        }
      ],
      "stateMutability": "view",
      "type": "function"
    },
    {
      "inputs": [],
      "name": "getMailbox",
      "outputs": [
        {
          "internalType": "address",
          "name": "",
          "type": "address"
        }
      ],
      "stateMutability": "view",
      "type": "function"
    },
    {
      "inputs": [],
      "name": "getMegaMaskAddress",
      "outputs": [
        {
          "internalType": "address",
          "name": "",
          "type": "address"
        }
      ],
      "stateMutability": "view",
      "type": "function"
    },
    {
      "inputs": [
        {
          "internalType": "uint32",
          "name": "_origin",
          "type": "uint32"
        },
        {
          "internalType": "bytes32",
          "name": "_sender",
          "type": "bytes32"
        },
        {
          "internalType": "bytes",
          "name": "_data",
          "type": "bytes"
        }
      ],
      "name": "handle",
      "outputs": [],
      "stateMutability": "nonpayable",
      "type": "function"
    },
    {
      "inputs": [],
      "name": "interchainSecurityModule",
      "outputs": [
        {
          "internalType": "contract IInterchainSecurityModule",
          "name": "",
          "type": "address"
        }
      ],
      "stateMutability": "view",
      "type": "function"
    },
    {
      "inputs": [],
      "name": "lastCallMessage",
      "outputs": [
        {
          "internalType": "string",
          "name": "",
          "type": "string"
        }
      ],
      "stateMutability": "view",
      "type": "function"
    },
    {
      "inputs": [],
      "name": "lastCaller",
      "outputs": [
        {
          "internalType": "address",
          "name": "",
          "type": "address"
        }
      ],
      "stateMutability": "view",
      "type": "function"
    },
    {
      "inputs": [],
      "name": "lastData",
      "outputs": [
        {
          "internalType": "bytes",
          "name": "",
          "type": "bytes"
        }
      ],
      "stateMutability": "view",
      "type": "function"
    },
    {
      "inputs": [],
      "name": "lastSender",
      "outputs": [
        {
          "internalType": "bytes32",
          "name": "",
          "type": "bytes32"
        }
      ],
      "stateMutability": "view",
      "type": "function"
    },
    {
      "inputs": [],
      "name": "mailboxAddress",
      "outputs": [
        {
          "internalType": "address",
          "name": "",
          "type": "address"
        }
      ],
      "stateMutability": "view",
      "type": "function"
    },
    {
      "inputs": [],
      "name": "megaMask",
      "outputs": [
        {
          "internalType": "contract IMegaMask",
          "name": "",
          "type": "address"
        }
      ],
      "stateMutability": "view",
      "type": "function"
    },
    {
      "inputs": [],
      "name": "megaMaskAddress",
      "outputs": [
        {
          "internalType": "address",
          "name": "",
          "type": "address"
        }
      ],
      "stateMutability": "view",
      "type": "function"
    },
    {
      "inputs": [
        {
          "internalType": "address",
          "name": "_ism",
          "type": "address"
        }
      ],
      "name": "setInterchainSecurityModule",
      "outputs": [],
      "stateMutability": "nonpayable",
      "type": "function"
    },
    {
      "inputs": [
        {
          "internalType": "address",
          "name": "_mailbox",
          "type": "address"
        }
      ],
      "name": "setMailbox",
      "outputs": [],
      "stateMutability": "nonpayable",
      "type": "function"
    },
    {
      "inputs": [
        {
          "internalType": "address",
          "name": "_megaMaskAddress",
          "type": "address"
        }
      ],
      "name": "setMegaMaskAddress",
      "outputs": [],
      "stateMutability": "nonpayable",
      "type": "function"
    }
  ],
  "bytecode": {
    "object": "0x608060405234801561001057600080fd5b50604051610d10380380610d1083398101604081905261002f91610089565b600180546001600160a01b03199081166001600160a01b039485161790915560008054821692909316918217909255600280549092161790556100bc565b80516001600160a01b038116811461008457600080fd5b919050565b6000806040838503121561009c57600080fd5b6100a58361006d565b91506100b36020840161006d565b90509250929050565b610c45806100cb6000396000f3fe6080604052600436106100fd5760003560e01c80635860e52f11610095578063a4982fde11610064578063a4982fde146102a8578063d8f62f87146102bd578063de523cf3146102dd578063f2e06c01146102fd578063f3c61d6b1461031d57600080fd5b80635860e52f1461022c5780638dfd23be1461024c57806395f0f5321461026c57806398aeaf5f1461028a57600080fd5b8063256fec88116100d1578063256fec88146101b757806348b437dc146101db578063535dab3d146101ee57806356d5d4751461020c57600080fd5b80626e75ec146101025780630e34b00e1461012d5780630e72cc06146101425780632113522a1461017f575b600080fd5b34801561010e57600080fd5b5061011761035a565b6040516101249190610750565b60405180910390f35b61014061013b366004610821565b6103e8565b005b34801561014e57600080fd5b5061014061015d3660046108a9565b600380546001600160a01b0319166001600160a01b0392909216919091179055565b34801561018b57600080fd5b5060065461019f906001600160a01b031681565b6040516001600160a01b039091168152602001610124565b3480156101c357600080fd5b506101cd60045481565b604051908152602001610124565b6101406101e9366004610971565b6104a2565b3480156101fa57600080fd5b506003546001600160a01b031661019f565b34801561021857600080fd5b506101406102273660046109ef565b610525565b34801561023857600080fd5b5060005461019f906001600160a01b031681565b34801561025857600080fd5b506101406102673660046108a9565b6106b3565b34801561027857600080fd5b506000546001600160a01b031661019f565b34801561029657600080fd5b506001546001600160a01b031661019f565b3480156102b457600080fd5b506101176106d9565b3480156102c957600080fd5b5060015461019f906001600160a01b031681565b3480156102e957600080fd5b5060035461019f906001600160a01b031681565b34801561030957600080fd5b5060025461019f906001600160a01b031681565b34801561032957600080fd5b506101406103383660046108a9565b600180546001600160a01b0319166001600160a01b0392909216919091179055565b6005805461036790610a81565b80601f016020809104026020016040519081016040528092919081815260200182805461039390610a81565b80156103e05780601f106103b5576101008083540402835291602001916103e0565b820191906000526020600020905b8154815290600101906020018083116103c357829003601f168201915b505050505081565b6103f06106e6565b336001600160a01b03167f1f902e0166c1fd807a09735b294d80639806f7de204fb81ebb581634cd89dd2684848460405161042d93929190610abb565b60405180910390a260025460405163071a580760e11b81526001600160a01b0390911690630e34b00e90349061046b90879087908790600401610abb565b6000604051808303818588803b15801561048457600080fd5b505af1158015610498573d6000803e3d6000fd5b5050505050505050565b6104aa6106e6565b336001600160a01b03167f615b0c52f4b900e3f5e6769a07c556d7024bb4084694f633ad5133859b5363038484846040516104e793929190610b53565b60405180910390a260025460405163122d0df760e21b81526001600160a01b03909116906348b437dc90349061046b90879087908790600401610b53565b6001546001600160a01b0316331461057c5760405162461bcd60e51b8152602060048201526015602482015274086c2d8d8cae440d2e640dcdee840dac2d2d8c4def605b1b60448201526064015b60405180910390fd5b828463ffffffff167fba67744c899113a84f615d51af5d82f5fedcf26c9a474d9363c3ad9b0bd501ac84846040516105b5929190610b8c565b60405180910390a360006105cc6004828486610bbb565b8101906105d99190610be5565b90506378e5a7f960e11b6001600160e01b031982160161062a57600080806106048560048189610bbb565b8101906106119190610821565b9250925092506106228383836103e8565b5050506106ac565b632dd2f20960e21b6001600160e01b031982160161067157600080806106538560048189610bbb565b8101906106609190610971565b9250925092506106228383836104a2565b60405162461bcd60e51b815260206004820152601060248201526f2ab735b737bbb710333ab731ba34b7b760811b6044820152606401610573565b5050505050565b600080546001600160a01b0319166001600160a01b0383161790556106d66106e6565b50565b6007805461036790610a81565b600054600280546001600160a01b0319166001600160a01b03909216919091179055565b6000815180845260005b8181101561073057602081850181015186830182015201610714565b506000602082860101526020601f19601f83011685010191505092915050565b602081526000610763602083018461070a565b9392505050565b634e487b7160e01b600052604160045260246000fd5b604051601f8201601f1916810167ffffffffffffffff811182821017156107a9576107a961076a565b604052919050565b600082601f8301126107c257600080fd5b813567ffffffffffffffff8111156107dc576107dc61076a565b6107ef601f8201601f1916602001610780565b81815284602083860101111561080457600080fd5b816020850160208301376000918101602001919091529392505050565b60008060006060848603121561083657600080fd5b833567ffffffffffffffff8082111561084e57600080fd5b61085a878388016107b1565b9450602086013591508082111561087057600080fd5b61087c878388016107b1565b9350604086013591508082111561089257600080fd5b5061089f868287016107b1565b9150509250925092565b6000602082840312156108bb57600080fd5b81356001600160a01b038116811461076357600080fd5b600082601f8301126108e357600080fd5b8135602067ffffffffffffffff808311156109005761090061076a565b8260051b61090f838201610780565b938452858101830193838101908886111561092957600080fd5b84880192505b85831015610965578235848111156109475760008081fd5b6109558a87838c01016107b1565b835250918401919084019061092f565b98975050505050505050565b60008060006060848603121561098657600080fd5b833567ffffffffffffffff8082111561099e57600080fd5b6109aa878388016108d2565b945060208601359150808211156109c057600080fd5b6109cc878388016108d2565b935060408601359150808211156109e257600080fd5b5061089f868287016108d2565b60008060008060608587031215610a0557600080fd5b843563ffffffff81168114610a1957600080fd5b935060208501359250604085013567ffffffffffffffff80821115610a3d57600080fd5b818701915087601f830112610a5157600080fd5b813581811115610a6057600080fd5b886020828501011115610a7257600080fd5b95989497505060200194505050565b600181811c90821680610a9557607f821691505b602082108103610ab557634e487b7160e01b600052602260045260246000fd5b50919050565b606081526000610ace606083018661070a565b8281036020840152610ae0818661070a565b90508281036040840152610af4818561070a565b9695505050505050565b600081518084526020808501808196508360051b8101915082860160005b85811015610b46578284038952610b3484835161070a565b98850198935090840190600101610b1c565b5091979650505050505050565b606081526000610b666060830186610afe565b8281036020840152610b788186610afe565b90508281036040840152610af48185610afe565b60208152816020820152818360408301376000818301604090810191909152601f909201601f19160101919050565b60008085851115610bcb57600080fd5b83861115610bd857600080fd5b5050820193919092039150565b600060208284031215610bf757600080fd5b81356001600160e01b03198116811461076357600080fdfea26469706673582212204ee95e0c20d25dc640bf684ad34eda5d40c6bafaab06acdbf8ad38218bd8ba3e64736f6c63430008130033",
    "linkReferences": {}
  },
  "methodIdentifiers": {
    "addMultipleProducts(string[],string[],string[])": "48b437dc",
    "addProduct(string,string,string)": "0e34b00e",
    "getInterchainSecurityModule()": "535dab3d",
    "getMailbox()": "98aeaf5f",
    "getMegaMaskAddress()": "95f0f532",
    "handle(uint32,bytes32,bytes)": "56d5d475",
    "interchainSecurityModule()": "de523cf3",
    "lastCallMessage()": "a4982fde",
    "lastCaller()": "2113522a",
    "lastData()": "006e75ec",
    "lastSender()": "256fec88",
    "mailboxAddress()": "d8f62f87",
    "megaMask()": "f2e06c01",
    "megaMaskAddress()": "5860e52f",
    "setInterchainSecurityModule(address)": "0e72cc06",
    "setMailbox(address)": "f3c61d6b",
    "setMegaMaskAddress(address)": "8dfd23be"
  },
  "id": 6
}