{
  "abi": [
    {
      "inputs": [
        {
          "internalType": "address",
          "name": "_interchainGasPaymasterAddress",
          "type": "address"
        },
        {
          "internalType": "address",
          "name": "_mailboxAddress",
          "type": "address"
        }
      ],
      "stateMutability": "nonpayable",
      "type": "constructor"
    },
    {
      "anonymous": false,
      "inputs": [
        {
          "indexed": false,
          "internalType": "address",
          "name": "newInterchainGasPaymasterAddress",
          "type": "address"
        }
      ],
      "name": "InterchainGasPaymasterUpdated",
      "type": "event"
    },
    {
      "anonymous": false,
      "inputs": [
        {
          "indexed": false,
          "internalType": "address",
          "name": "newMailboxAddress",
          "type": "address"
        }
      ],
      "name": "MailboxUpdated",
      "type": "event"
    },
    {
      "anonymous": false,
      "inputs": [
        {
          "indexed": true,
          "internalType": "address",
          "name": "smartAccountAddress",
          "type": "address"
        },
        {
          "indexed": false,
          "internalType": "string",
          "name": "productPicCID",
          "type": "string"
        },
        {
          "indexed": false,
          "internalType": "string",
          "name": "productName",
          "type": "string"
        },
        {
          "indexed": false,
          "internalType": "string",
          "name": "price",
          "type": "string"
        },
        {
          "indexed": false,
          "internalType": "uint256",
          "name": "index",
          "type": "uint256"
        }
      ],
      "name": "ProductAddedToOriginChain",
      "type": "event"
    },
    {
      "anonymous": false,
      "inputs": [
        {
          "indexed": true,
          "internalType": "address",
          "name": "smartAccountAddress",
          "type": "address"
        },
        {
          "indexed": false,
          "internalType": "string",
          "name": "productPicCID",
          "type": "string"
        },
        {
          "indexed": false,
          "internalType": "string",
          "name": "productName",
          "type": "string"
        },
        {
          "indexed": false,
          "internalType": "string",
          "name": "price",
          "type": "string"
        },
        {
          "indexed": false,
          "internalType": "uint256",
          "name": "index",
          "type": "uint256"
        }
      ],
      "name": "ProductPropagatedToDifferentChains",
      "type": "event"
    },
    {
      "anonymous": false,
      "inputs": [
        {
          "indexed": true,
          "internalType": "address",
          "name": "smartAccountAddress",
          "type": "address"
        },
        {
          "indexed": false,
          "internalType": "string",
          "name": "productPicCID",
          "type": "string"
        },
        {
          "indexed": false,
          "internalType": "string",
          "name": "productName",
          "type": "string"
        },
        {
          "indexed": false,
          "internalType": "string",
          "name": "price",
          "type": "string"
        }
      ],
      "name": "ProductRemoved",
      "type": "event"
    },
    {
      "inputs": [
        {
          "internalType": "string[]",
          "name": "_productPicCIDs",
          "type": "string[]"
        },
        {
          "internalType": "string[]",
          "name": "_productNames",
          "type": "string[]"
        },
        {
          "internalType": "string[]",
          "name": "_prices",
          "type": "string[]"
        }
      ],
      "name": "addMultipleProducts",
      "outputs": [],
      "stateMutability": "payable",
      "type": "function"
    },
    {
      "inputs": [
        {
          "internalType": "string",
          "name": "_productPicCID",
          "type": "string"
        },
        {
          "internalType": "string",
          "name": "_productName",
          "type": "string"
        },
        {
          "internalType": "string",
          "name": "_price",
          "type": "string"
        }
      ],
      "name": "addProduct",
      "outputs": [],
      "stateMutability": "payable",
      "type": "function"
    },
    {
      "inputs": [
        {
          "internalType": "uint256",
          "name": "",
          "type": "uint256"
        }
      ],
      "name": "chainIdsToPropagateTo",
      "outputs": [
        {
          "internalType": "uint256",
          "name": "",
          "type": "uint256"
        }
      ],
      "stateMutability": "view",
      "type": "function"
    },
    {
      "inputs": [
        {
          "internalType": "uint256",
          "name": "_gasAmount",
          "type": "uint256"
        }
      ],
      "name": "changeGasAmount",
      "outputs": [],
      "stateMutability": "nonpayable",
      "type": "function"
    },
    {
      "inputs": [
        {
          "internalType": "address",
          "name": "_interchainGasPaymasterAddress",
          "type": "address"
        }
      ],
      "name": "changeInterchainGasPaymasterAddress",
      "outputs": [],
      "stateMutability": "nonpayable",
      "type": "function"
    },
    {
      "inputs": [
        {
          "internalType": "address",
          "name": "_mailboxAddress",
          "type": "address"
        }
      ],
      "name": "changeMailboxAddress",
      "outputs": [],
      "stateMutability": "nonpayable",
      "type": "function"
    },
    {
      "inputs": [
        {
          "internalType": "address",
          "name": "_smartAccountAddress",
          "type": "address"
        },
        {
          "internalType": "uint256",
          "name": "_productIndex",
          "type": "uint256"
        }
      ],
      "name": "getProduct",
      "outputs": [
        {
          "components": [
            {
              "internalType": "string",
              "name": "productPicCID",
              "type": "string"
            },
            {
              "internalType": "string",
              "name": "productName",
              "type": "string"
            },
            {
              "internalType": "string",
              "name": "price",
              "type": "string"
            }
          ],
          "internalType": "struct MegaMask.Product",
          "name": "",
          "type": "tuple"
        }
      ],
      "stateMutability": "view",
      "type": "function"
    },
    {
      "inputs": [
        {
          "internalType": "address",
          "name": "_smartAccountAddress",
          "type": "address"
        }
      ],
      "name": "getProductInventory",
      "outputs": [
        {
          "components": [
            {
              "internalType": "string",
              "name": "productPicCID",
              "type": "string"
            },
            {
              "internalType": "string",
              "name": "productName",
              "type": "string"
            },
            {
              "internalType": "string",
              "name": "price",
              "type": "string"
            }
          ],
          "internalType": "struct MegaMask.Product[]",
          "name": "",
          "type": "tuple[]"
        }
      ],
      "stateMutability": "view",
      "type": "function"
    },
    {
      "inputs": [],
      "name": "igp",
      "outputs": [
        {
          "internalType": "contract IInterchainGasPaymaster",
          "name": "",
          "type": "address"
        }
      ],
      "stateMutability": "view",
      "type": "function"
    },
    {
      "inputs": [],
      "name": "interchainGasPaymasterAddress",
      "outputs": [
        {
          "internalType": "address",
          "name": "",
          "type": "address"
        }
      ],
      "stateMutability": "view",
      "type": "function"
    },
    {
      "inputs": [],
      "name": "mailbox",
      "outputs": [
        {
          "internalType": "contract IMailbox",
          "name": "",
          "type": "address"
        }
      ],
      "stateMutability": "view",
      "type": "function"
    },
    {
      "inputs": [],
      "name": "mailboxAddress",
      "outputs": [
        {
          "internalType": "address",
          "name": "",
          "type": "address"
        }
      ],
      "stateMutability": "view",
      "type": "function"
    },
    {
      "inputs": [
        {
          "internalType": "uint32",
          "name": "_destinationDomain",
          "type": "uint32"
        },
        {
          "internalType": "bytes32",
          "name": "_recipientAddress",
          "type": "bytes32"
        },
        {
          "internalType": "bytes",
          "name": "_messageBody",
          "type": "bytes"
        }
      ],
      "name": "sendInterchainCall",
      "outputs": [],
      "stateMutability": "nonpayable",
      "type": "function"
    },
    {
      "inputs": [
        {
          "internalType": "address",
          "name": "",
          "type": "address"
        },
        {
          "internalType": "uint256",
          "name": "",
          "type": "uint256"
        }
      ],
      "name": "smartAccountToInventory",
      "outputs": [
        {
          "internalType": "string",
          "name": "productPicCID",
          "type": "string"
        },
        {
          "internalType": "string",
          "name": "productName",
          "type": "string"
        },
        {
          "internalType": "string",
          "name": "price",
          "type": "string"
        }
      ],
      "stateMutability": "view",
      "type": "function"
    },
    {
      "inputs": [
        {
          "internalType": "address payable",
          "name": "_to",
          "type": "address"
        },
        {
          "internalType": "uint256",
          "name": "_amount",
          "type": "uint256"
        }
      ],
      "name": "transferFunds",
      "outputs": [],
      "stateMutability": "nonpayable",
      "type": "function"
    },
    {
      "inputs": [
        {
          "internalType": "uint256[]",
          "name": "_chainIdsToPropagateTo",
          "type": "uint256[]"
        }
      ],
      "name": "updateChainIdsToPropagateTo",
      "outputs": [],
      "stateMutability": "nonpayable",
      "type": "function"
    },
    {
      "stateMutability": "payable",
      "type": "receive"
    }
  ],
  "bytecode": {
    "object": "0x6080604052620186a060025534801561001757600080fd5b50604051620016c5380380620016c5833981016040819052610038916100a0565b600080546001600160a01b038481166001600160a01b031992831681179093556001805491851691831682179055600380548316909117905560048054909116909117905550506100d3565b80516001600160a01b038116811461009b57600080fd5b919050565b600080604083850312156100b357600080fd5b6100bc83610084565b91506100ca60208401610084565b90509250929050565b6115e280620000e36000396000f3fe6080604052600436106100f75760003560e01c8063a3ba77451161008a578063d5438eae11610059578063d5438eae146102bf578063d8f62f87146102df578063e7ced23a146102ff578063f28b2daa1461031f57600080fd5b8063a3ba774514610218578063af4f918c14610238578063bc4a3fbd14610270578063c0c627561461029057600080fd5b806369d5f81e116100c657806369d5f81e1461018b5780636b81e5c4146101b85780638f6710ff146101d8578063990dc9db146101f857600080fd5b80630e34b00e146101035780633d90b42f1461011857806348b437dc1461014b5780635e1246cd1461015e57600080fd5b366100fe57005b600080fd5b610116610111366004610ebb565b61033f565b005b34801561012457600080fd5b50610138610133366004610f43565b610420565b6040519081526020015b60405180910390f35b610116610159366004611010565b610441565b34801561016a57600080fd5b5061017e6101793660046110a3565b6104bb565b604051610142919061115e565b34801561019757600080fd5b506101ab6101a63660046111c0565b6106e6565b60405161014291906111ec565b3480156101c457600080fd5b506101166101d33660046110a3565b61090c565b3480156101e457600080fd5b506101166101f33660046111ff565b610969565b34801561020457600080fd5b506101166102133660046111c0565b610af1565b34801561022457600080fd5b506101166102333660046110a3565b610b2c565b34801561024457600080fd5b50600054610258906001600160a01b031681565b6040516001600160a01b039091168152602001610142565b34801561027c57600080fd5b5061011661028b366004610f43565b600255565b34801561029c57600080fd5b506102b06102ab3660046111c0565b610b7a565b60405161014293929190611291565b3480156102cb57600080fd5b50600354610258906001600160a01b031681565b3480156102eb57600080fd5b50600154610258906001600160a01b031681565b34801561030b57600080fd5b5061011661031a3660046112d4565b610d59565b34801561032b57600080fd5b50600454610258906001600160a01b031681565b6040805160608101825284815260208082018590528183018490523260009081526006825292832080546001810182559084529220815191928392600390910290910190819061038f90826113ed565b50602082015160018201906103a490826113ed565b50604082015160028201906103b990826113ed565b5050326000818152600660205260409020549091507f68cc8abb28ef253bf8cd6032cd65e1080c8127d725d6e243c4336553e36c899490869086908690610402906001906114c3565b60405161041294939291906114d6565b60405180910390a250505050565b6005818154811061043057600080fd5b600091825260209091200154905081565b60005b83518110156104b5576104a384828151811061046257610462611521565b602002602001015184838151811061047c5761047c611521565b602002602001015184848151811061049657610496611521565b602002602001015161033f565b806104ad81611537565b915050610444565b50505050565b6001600160a01b0381166000908152600660209081526040808320805482518185028101850190935280835260609492939192909184015b828210156106db578382906000526020600020906003020160405180606001604052908160008201805461052690611365565b80601f016020809104026020016040519081016040528092919081815260200182805461055290611365565b801561059f5780601f106105745761010080835404028352916020019161059f565b820191906000526020600020905b81548152906001019060200180831161058257829003601f168201915b505050505081526020016001820180546105b890611365565b80601f01602080910402602001604051908101604052809291908181526020018280546105e490611365565b80156106315780601f1061060657610100808354040283529160200191610631565b820191906000526020600020905b81548152906001019060200180831161061457829003601f168201915b5050505050815260200160028201805461064a90611365565b80601f016020809104026020016040519081016040528092919081815260200182805461067690611365565b80156106c35780601f10610698576101008083540402835291602001916106c3565b820191906000526020600020905b8154815290600101906020018083116106a657829003601f168201915b505050505081525050815260200190600101906104f3565b505050509050919050565b61070a60405180606001604052806060815260200160608152602001606081525090565b6001600160a01b038316600090815260066020526040902080548390811061073457610734611521565b906000526020600020906003020160405180606001604052908160008201805461075d90611365565b80601f016020809104026020016040519081016040528092919081815260200182805461078990611365565b80156107d65780601f106107ab576101008083540402835291602001916107d6565b820191906000526020600020905b8154815290600101906020018083116107b957829003601f168201915b505050505081526020016001820180546107ef90611365565b80601f016020809104026020016040519081016040528092919081815260200182805461081b90611365565b80156108685780601f1061083d57610100808354040283529160200191610868565b820191906000526020600020905b81548152906001019060200180831161084b57829003601f168201915b5050505050815260200160028201805461088190611365565b80601f01602080910402602001604051908101604052809291908181526020018280546108ad90611365565b80156108fa5780601f106108cf576101008083540402835291602001916108fa565b820191906000526020600020905b8154815290600101906020018083116108dd57829003601f168201915b50505050508152505090505b92915050565b600080546001600160a01b0319166001600160a01b0383169081179091556040519081527f9402d34105802b8329d8eeb5a354fb268ea46f1a637cd4a378a320b46f55c1aa906020015b60405180910390a1610966610d70565b50565b610971610d70565b60035460405163fa31de0160e01b81526000916001600160a01b03169063fa31de01906109a8908890889088908890600401611550565b6020604051808303816000875af11580156109c7573d6000803e3d6000fd5b505050506040513d601f19601f820116820180604052508101906109eb9190611593565b6004805460025460405163a692979360e01b815263ffffffff8a169381019390935260248301529192506000916001600160a01b03169063a692979390604401602060405180830381865afa158015610a48573d6000803e3d6000fd5b505050506040513d601f19601f82011682018060405250810190610a6c9190611593565b60048054600254604051630237e58360e31b815292830186905263ffffffff8a16602484015260448301523060648301529192506001600160a01b03909116906311bf2c189083906084016000604051808303818588803b158015610ad057600080fd5b505af1158015610ae4573d6000803e3d6000fd5b5050505050505050505050565b6040516001600160a01b0383169082156108fc029083906000818181858888f19350505050158015610b27573d6000803e3d6000fd5b505050565b600180546001600160a01b0319166001600160a01b0383169081179091556040519081527f71e9d30d91bb47551a5ecaa7e89f4278d71198865b32949dcccccea0ba546d2690602001610956565b60066020528160005260406000208181548110610b9657600080fd5b906000526020600020906003020160009150915050806000018054610bba90611365565b80601f0160208091040260200160405190810160405280929190818152602001828054610be690611365565b8015610c335780601f10610c0857610100808354040283529160200191610c33565b820191906000526020600020905b815481529060010190602001808311610c1657829003601f168201915b505050505090806001018054610c4890611365565b80601f0160208091040260200160405190810160405280929190818152602001828054610c7490611365565b8015610cc15780601f10610c9657610100808354040283529160200191610cc1565b820191906000526020600020905b815481529060010190602001808311610ca457829003601f168201915b505050505090806002018054610cd690611365565b80601f0160208091040260200160405190810160405280929190818152602001828054610d0290611365565b8015610d4f5780601f10610d2457610100808354040283529160200191610d4f565b820191906000526020600020905b815481529060010190602001808311610d3257829003601f168201915b5050505050905083565b8051610d6c906005906020840190610da4565b5050565b600154600380546001600160a01b039283166001600160a01b03199182161790915560005460048054919093169116179055565b828054828255906000526020600020908101928215610ddf579160200282015b82811115610ddf578251825591602001919060010190610dc4565b50610deb929150610def565b5090565b5b80821115610deb5760008155600101610df0565b634e487b7160e01b600052604160045260246000fd5b604051601f8201601f1916810167ffffffffffffffff81118282101715610e4357610e43610e04565b604052919050565b600082601f830112610e5c57600080fd5b813567ffffffffffffffff811115610e7657610e76610e04565b610e89601f8201601f1916602001610e1a565b818152846020838601011115610e9e57600080fd5b816020850160208301376000918101602001919091529392505050565b600080600060608486031215610ed057600080fd5b833567ffffffffffffffff80821115610ee857600080fd5b610ef487838801610e4b565b94506020860135915080821115610f0a57600080fd5b610f1687838801610e4b565b93506040860135915080821115610f2c57600080fd5b50610f3986828701610e4b565b9150509250925092565b600060208284031215610f5557600080fd5b5035919050565b600067ffffffffffffffff821115610f7657610f76610e04565b5060051b60200190565b600082601f830112610f9157600080fd5b81356020610fa6610fa183610f5c565b610e1a565b82815260059290921b84018101918181019086841115610fc557600080fd5b8286015b8481101561100557803567ffffffffffffffff811115610fe95760008081fd5b610ff78986838b0101610e4b565b845250918301918301610fc9565b509695505050505050565b60008060006060848603121561102557600080fd5b833567ffffffffffffffff8082111561103d57600080fd5b61104987838801610f80565b9450602086013591508082111561105f57600080fd5b61106b87838801610f80565b9350604086013591508082111561108157600080fd5b50610f3986828701610f80565b6001600160a01b038116811461096657600080fd5b6000602082840312156110b557600080fd5b81356110c08161108e565b9392505050565b6000815180845260005b818110156110ed576020818501810151868301820152016110d1565b506000602082860101526020601f19601f83011685010191505092915050565b600081516060845261112260608501826110c7565b90506020830151848203602086015261113b82826110c7565b9150506040830151848203604086015261115582826110c7565b95945050505050565b6000602080830181845280855180835260408601915060408160051b870101925083870160005b828110156111b357603f198886030184526111a185835161110d565b94509285019290850190600101611185565b5092979650505050505050565b600080604083850312156111d357600080fd5b82356111de8161108e565b946020939093013593505050565b6020815260006110c0602083018461110d565b6000806000806060858703121561121557600080fd5b843563ffffffff8116811461122957600080fd5b935060208501359250604085013567ffffffffffffffff8082111561124d57600080fd5b818701915087601f83011261126157600080fd5b81358181111561127057600080fd5b88602082850101111561128257600080fd5b95989497505060200194505050565b6060815260006112a460608301866110c7565b82810360208401526112b681866110c7565b905082810360408401526112ca81856110c7565b9695505050505050565b600060208083850312156112e757600080fd5b823567ffffffffffffffff8111156112fe57600080fd5b8301601f8101851361130f57600080fd5b803561131d610fa182610f5c565b81815260059190911b8201830190838101908783111561133c57600080fd5b928401925b8284101561135a57833582529284019290840190611341565b979650505050505050565b600181811c9082168061137957607f821691505b60208210810361139957634e487b7160e01b600052602260045260246000fd5b50919050565b601f821115610b2757600081815260208120601f850160051c810160208610156113c65750805b601f850160051c820191505b818110156113e5578281556001016113d2565b505050505050565b815167ffffffffffffffff81111561140757611407610e04565b61141b816114158454611365565b8461139f565b602080601f83116001811461145057600084156114385750858301515b600019600386901b1c1916600185901b1785556113e5565b600085815260208120601f198616915b8281101561147f57888601518255948401946001909101908401611460565b508582101561149d5787850151600019600388901b60f8161c191681555b5050505050600190811b01905550565b634e487b7160e01b600052601160045260246000fd5b81810381811115610906576109066114ad565b6080815260006114e960808301876110c7565b82810360208401526114fb81876110c7565b9050828103604084015261150f81866110c7565b91505082606083015295945050505050565b634e487b7160e01b600052603260045260246000fd5b600060018201611549576115496114ad565b5060010190565b63ffffffff8516815283602082015260606040820152816060820152818360808301376000818301608090810191909152601f909201601f191601019392505050565b6000602082840312156115a557600080fd5b505191905056fea2646970667358221220c20af977b4aa2d2557e6181e099fee435257056cf7ed61f6c5c27519061e4a3164736f6c63430008130033",
    "linkReferences": {}
  },
  "methodIdentifiers": {
    "addMultipleProducts(string[],string[],string[])": "48b437dc",
    "addProduct(string,string,string)": "0e34b00e",
    "chainIdsToPropagateTo(uint256)": "3d90b42f",
    "changeGasAmount(uint256)": "bc4a3fbd",
    "changeInterchainGasPaymasterAddress(address)": "6b81e5c4",
    "changeMailboxAddress(address)": "a3ba7745",
    "getProduct(address,uint256)": "69d5f81e",
    "getProductInventory(address)": "5e1246cd",
    "igp()": "f28b2daa",
    "interchainGasPaymasterAddress()": "af4f918c",
    "mailbox()": "d5438eae",
    "mailboxAddress()": "d8f62f87",
    "sendInterchainCall(uint32,bytes32,bytes)": "8f6710ff",
    "smartAccountToInventory(address,uint256)": "c0c62756",
    "transferFunds(address,uint256)": "990dc9db",
    "updateChainIdsToPropagateTo(uint256[])": "e7ced23a"
  },
  "id": 5
}