{
  "abi": [
    {
      "inputs": [
        {
          "internalType": "address",
          "name": "_interchainGasPaymasterAddress",
          "type": "address"
        },
        {
          "internalType": "address",
          "name": "_mailboxAddress",
          "type": "address"
        }
      ],
      "stateMutability": "nonpayable",
      "type": "constructor"
    },
    {
      "anonymous": false,
      "inputs": [
        {
          "indexed": false,
          "internalType": "address",
          "name": "newInterchainGasPaymasterAddress",
          "type": "address"
        }
      ],
      "name": "InterchainGasPaymasterUpdated",
      "type": "event"
    },
    {
      "anonymous": false,
      "inputs": [
        {
          "indexed": false,
          "internalType": "address",
          "name": "newMailboxAddress",
          "type": "address"
        }
      ],
      "name": "MailboxUpdated",
      "type": "event"
    },
    {
      "anonymous": false,
      "inputs": [
        {
          "indexed": true,
          "internalType": "address",
          "name": "smartAccountAddress",
          "type": "address"
        },
        {
          "indexed": false,
          "internalType": "string",
          "name": "productPicCID",
          "type": "string"
        },
        {
          "indexed": false,
          "internalType": "string",
          "name": "productName",
          "type": "string"
        },
        {
          "indexed": false,
          "internalType": "string",
          "name": "price",
          "type": "string"
        },
        {
          "indexed": false,
          "internalType": "uint256",
          "name": "index",
          "type": "uint256"
        }
      ],
      "name": "ProductAddedToOriginChain",
      "type": "event"
    },
    {
      "anonymous": false,
      "inputs": [
        {
          "indexed": true,
          "internalType": "address",
          "name": "smartAccountAddress",
          "type": "address"
        },
        {
          "indexed": false,
          "internalType": "string",
          "name": "productPicCID",
          "type": "string"
        },
        {
          "indexed": false,
          "internalType": "string",
          "name": "productName",
          "type": "string"
        },
        {
          "indexed": false,
          "internalType": "string",
          "name": "price",
          "type": "string"
        },
        {
          "indexed": false,
          "internalType": "uint256",
          "name": "index",
          "type": "uint256"
        }
      ],
      "name": "ProductPropagatedToDifferentChains",
      "type": "event"
    },
    {
      "anonymous": false,
      "inputs": [
        {
          "indexed": true,
          "internalType": "address",
          "name": "smartAccountAddress",
          "type": "address"
        },
        {
          "indexed": false,
          "internalType": "string",
          "name": "productPicCID",
          "type": "string"
        },
        {
          "indexed": false,
          "internalType": "string",
          "name": "productName",
          "type": "string"
        },
        {
          "indexed": false,
          "internalType": "string",
          "name": "price",
          "type": "string"
        }
      ],
      "name": "ProductRemoved",
      "type": "event"
    },
    {
      "inputs": [
        {
          "internalType": "string[]",
          "name": "_productPicCIDs",
          "type": "string[]"
        },
        {
          "internalType": "string[]",
          "name": "_productNames",
          "type": "string[]"
        },
        {
          "internalType": "string[]",
          "name": "_prices",
          "type": "string[]"
        }
      ],
      "name": "addMultipleProducts",
      "outputs": [],
      "stateMutability": "payable",
      "type": "function"
    },
    {
      "inputs": [
        {
          "internalType": "string",
          "name": "_productPicCID",
          "type": "string"
        },
        {
          "internalType": "string",
          "name": "_productName",
          "type": "string"
        },
        {
          "internalType": "string",
          "name": "_price",
          "type": "string"
        }
      ],
      "name": "addProduct",
      "outputs": [],
      "stateMutability": "payable",
      "type": "function"
    },
    {
      "inputs": [
        {
          "internalType": "uint256",
          "name": "",
          "type": "uint256"
        }
      ],
      "name": "chainIdsToPropagateTo",
      "outputs": [
        {
          "internalType": "uint256",
          "name": "",
          "type": "uint256"
        }
      ],
      "stateMutability": "view",
      "type": "function"
    },
    {
      "inputs": [
        {
          "internalType": "uint256",
          "name": "_gasAmount",
          "type": "uint256"
        }
      ],
      "name": "changeGasAmount",
      "outputs": [],
      "stateMutability": "nonpayable",
      "type": "function"
    },
    {
      "inputs": [
        {
          "internalType": "address",
          "name": "_interchainGasPaymasterAddress",
          "type": "address"
        }
      ],
      "name": "changeInterchainGasPaymasterAddress",
      "outputs": [],
      "stateMutability": "nonpayable",
      "type": "function"
    },
    {
      "inputs": [
        {
          "internalType": "address",
          "name": "_mailboxAddress",
          "type": "address"
        }
      ],
      "name": "changeMailboxAddress",
      "outputs": [],
      "stateMutability": "nonpayable",
      "type": "function"
    },
    {
      "inputs": [],
      "name": "igp",
      "outputs": [
        {
          "internalType": "contract IInterchainGasPaymaster",
          "name": "",
          "type": "address"
        }
      ],
      "stateMutability": "view",
      "type": "function"
    },
    {
      "inputs": [],
      "name": "interchainGasPaymasterAddress",
      "outputs": [
        {
          "internalType": "address",
          "name": "",
          "type": "address"
        }
      ],
      "stateMutability": "view",
      "type": "function"
    },
    {
      "inputs": [],
      "name": "mailbox",
      "outputs": [
        {
          "internalType": "contract IMailbox",
          "name": "",
          "type": "address"
        }
      ],
      "stateMutability": "view",
      "type": "function"
    },
    {
      "inputs": [],
      "name": "mailboxAddress",
      "outputs": [
        {
          "internalType": "address",
          "name": "",
          "type": "address"
        }
      ],
      "stateMutability": "view",
      "type": "function"
    },
    {
      "inputs": [
        {
          "internalType": "uint256",
          "name": "_originChainId",
          "type": "uint256"
        },
        {
          "internalType": "string",
          "name": "_productPicCID",
          "type": "string"
        },
        {
          "internalType": "string",
          "name": "_productName",
          "type": "string"
        },
        {
          "internalType": "string",
          "name": "_price",
          "type": "string"
        }
      ],
      "name": "propagateProductDetailsToDifferentChains",
      "outputs": [],
      "stateMutability": "payable",
      "type": "function"
    },
    {
      "inputs": [
        {
          "internalType": "uint32",
          "name": "_destinationDomain",
          "type": "uint32"
        },
        {
          "internalType": "bytes32",
          "name": "_recipientAddress",
          "type": "bytes32"
        },
        {
          "internalType": "bytes",
          "name": "_messageBody",
          "type": "bytes"
        }
      ],
      "name": "sendInterchainCall",
      "outputs": [],
      "stateMutability": "payable",
      "type": "function"
    },
    {
      "inputs": [
        {
          "internalType": "address",
          "name": "",
          "type": "address"
        },
        {
          "internalType": "uint256",
          "name": "",
          "type": "uint256"
        }
      ],
      "name": "smartAccountToInventory",
      "outputs": [
        {
          "internalType": "string",
          "name": "productPicCID",
          "type": "string"
        },
        {
          "internalType": "string",
          "name": "productName",
          "type": "string"
        },
        {
          "internalType": "string",
          "name": "price",
          "type": "string"
        }
      ],
      "stateMutability": "view",
      "type": "function"
    },
    {
      "inputs": [
        {
          "internalType": "uint256[]",
          "name": "_chainIdsToPropagateTo",
          "type": "uint256[]"
        }
      ],
      "name": "updateChainIdsToPropagateTo",
      "outputs": [],
      "stateMutability": "nonpayable",
      "type": "function"
    },
    {
      "stateMutability": "payable",
      "type": "receive"
    }
  ],
  "bytecode": {
    "object": "0x6080604052620186a060025534801561001757600080fd5b506040516112943803806112948339810160408190526100369161009e565b600080546001600160a01b038481166001600160a01b031992831681179093556001805491851691831682179055600380548316909117905560048054909116909117905550506100d1565b80516001600160a01b038116811461009957600080fd5b919050565b600080604083850312156100b157600080fd5b6100ba83610082565b91506100c860208401610082565b90509250929050565b6111b4806100e06000396000f3fe6080604052600436106100e15760003560e01c8063bc4a3fbd1161007f578063d5438eae11610059578063d5438eae14610235578063d8f62f8714610255578063e7ced23a14610275578063f28b2daa1461029557600080fd5b8063bc4a3fbd146101d3578063bf523e45146101f3578063c0c627561461020657600080fd5b80636b81e5c4116100bb5780636b81e5c4146101485780638f6710ff14610168578063a3ba77451461017b578063af4f918c1461019b57600080fd5b80630e34b00e146100ed5780633d90b42f1461010257806348b437dc1461013557600080fd5b366100e857005b600080fd5b6101006100fb366004610a6e565b6102b5565b005b34801561010e57600080fd5b5061012261011d366004610af6565b6103be565b6040519081526020015b60405180910390f35b610100610143366004610bc3565b6103df565b34801561015457600080fd5b50610100610163366004610c5d565b610478565b610100610176366004610c7f565b6104d5565b34801561018757600080fd5b50610100610196366004610c5d565b61065d565b3480156101a757600080fd5b506000546101bb906001600160a01b031681565b6040516001600160a01b03909116815260200161012c565b3480156101df57600080fd5b506101006101ee366004610af6565b600255565b610100610201366004610d11565b6106ab565b34801561021257600080fd5b50610226610221366004610da3565b61072d565b60405161012c93929190610e13565b34801561024157600080fd5b506003546101bb906001600160a01b031681565b34801561026157600080fd5b506001546101bb906001600160a01b031681565b34801561028157600080fd5b50610100610290366004610e56565b61090c565b3480156102a157600080fd5b506004546101bb906001600160a01b031681565b3332146102dd5760405162461bcd60e51b81526004016102d490610ee7565b60405180910390fd5b6040805160608101825284815260208082018590528183018490523360009081526006825292832080546001810182559084529220815191928392600390910290910190819061032d9082610fb9565b50602082015160018201906103429082610fb9565b50604082015160028201906103579082610fb9565b5050336000818152600660205260409020549091507f68cc8abb28ef253bf8cd6032cd65e1080c8127d725d6e243c4336553e36c8994908690869086906103a09060019061108f565b6040516103b094939291906110a8565b60405180910390a250505050565b600581815481106103ce57600080fd5b600091825260209091200154905081565b3332146103fe5760405162461bcd60e51b81526004016102d490610ee7565b60005b83518110156104725761046084828151811061041f5761041f6110f3565b6020026020010151848381518110610439576104396110f3565b6020026020010151848481518110610453576104536110f3565b60200260200101516102b5565b8061046a81611109565b915050610401565b50505050565b600080546001600160a01b0319166001600160a01b0383169081179091556040519081527f9402d34105802b8329d8eeb5a354fb268ea46f1a637cd4a378a320b46f55c1aa906020015b60405180910390a16104d2610923565b50565b6104dd610923565b60035460405163fa31de0160e01b81526000916001600160a01b03169063fa31de0190610514908890889088908890600401611122565b6020604051808303816000875af1158015610533573d6000803e3d6000fd5b505050506040513d601f19601f820116820180604052508101906105579190611165565b6004805460025460405163a692979360e01b815263ffffffff8a169381019390935260248301529192506000916001600160a01b03169063a692979390604401602060405180830381865afa1580156105b4573d6000803e3d6000fd5b505050506040513d601f19601f820116820180604052508101906105d89190611165565b60048054600254604051630237e58360e31b815292830186905263ffffffff8a16602484015260448301523060648301529192506001600160a01b03909116906311bf2c189083906084016000604051808303818588803b15801561063c57600080fd5b505af1158015610650573d6000803e3d6000fd5b5050505050505050505050565b600180546001600160a01b0319166001600160a01b0383169081179091556040519081527f71e9d30d91bb47551a5ecaa7e89f4278d71198865b32949dcccccea0ba546d26906020016104c2565b60005b60055481101561072657336000818152600660205260409020547fb53490cb4bb621c044dc488276d3229a16cce80bc16c8bd1f7ddf7c295680f0b908690869086906106fc9060019061108f565b60405161070c94939291906110a8565b60405180910390a28061071e81611109565b9150506106ae565b5050505050565b6006602052816000526040600020818154811061074957600080fd5b90600052602060002090600302016000915091505080600001805461076d90610f30565b80601f016020809104026020016040519081016040528092919081815260200182805461079990610f30565b80156107e65780601f106107bb576101008083540402835291602001916107e6565b820191906000526020600020905b8154815290600101906020018083116107c957829003601f168201915b5050505050908060010180546107fb90610f30565b80601f016020809104026020016040519081016040528092919081815260200182805461082790610f30565b80156108745780601f1061084957610100808354040283529160200191610874565b820191906000526020600020905b81548152906001019060200180831161085757829003601f168201915b50505050509080600201805461088990610f30565b80601f01602080910402602001604051908101604052809291908181526020018280546108b590610f30565b80156109025780601f106108d757610100808354040283529160200191610902565b820191906000526020600020905b8154815290600101906020018083116108e557829003601f168201915b5050505050905083565b805161091f906005906020840190610957565b5050565b600154600380546001600160a01b039283166001600160a01b03199182161790915560005460048054919093169116179055565b828054828255906000526020600020908101928215610992579160200282015b82811115610992578251825591602001919060010190610977565b5061099e9291506109a2565b5090565b5b8082111561099e57600081556001016109a3565b634e487b7160e01b600052604160045260246000fd5b604051601f8201601f1916810167ffffffffffffffff811182821017156109f6576109f66109b7565b604052919050565b600082601f830112610a0f57600080fd5b813567ffffffffffffffff811115610a2957610a296109b7565b610a3c601f8201601f19166020016109cd565b818152846020838601011115610a5157600080fd5b816020850160208301376000918101602001919091529392505050565b600080600060608486031215610a8357600080fd5b833567ffffffffffffffff80821115610a9b57600080fd5b610aa7878388016109fe565b94506020860135915080821115610abd57600080fd5b610ac9878388016109fe565b93506040860135915080821115610adf57600080fd5b50610aec868287016109fe565b9150509250925092565b600060208284031215610b0857600080fd5b5035919050565b600067ffffffffffffffff821115610b2957610b296109b7565b5060051b60200190565b600082601f830112610b4457600080fd5b81356020610b59610b5483610b0f565b6109cd565b82815260059290921b84018101918181019086841115610b7857600080fd5b8286015b84811015610bb857803567ffffffffffffffff811115610b9c5760008081fd5b610baa8986838b01016109fe565b845250918301918301610b7c565b509695505050505050565b600080600060608486031215610bd857600080fd5b833567ffffffffffffffff80821115610bf057600080fd5b610bfc87838801610b33565b94506020860135915080821115610c1257600080fd5b610c1e87838801610b33565b93506040860135915080821115610c3457600080fd5b50610aec86828701610b33565b80356001600160a01b0381168114610c5857600080fd5b919050565b600060208284031215610c6f57600080fd5b610c7882610c41565b9392505050565b60008060008060608587031215610c9557600080fd5b843563ffffffff81168114610ca957600080fd5b935060208501359250604085013567ffffffffffffffff80821115610ccd57600080fd5b818701915087601f830112610ce157600080fd5b813581811115610cf057600080fd5b886020828501011115610d0257600080fd5b95989497505060200194505050565b60008060008060808587031215610d2757600080fd5b84359350602085013567ffffffffffffffff80821115610d4657600080fd5b610d52888389016109fe565b94506040870135915080821115610d6857600080fd5b610d74888389016109fe565b93506060870135915080821115610d8a57600080fd5b50610d97878288016109fe565b91505092959194509250565b60008060408385031215610db657600080fd5b610dbf83610c41565b946020939093013593505050565b6000815180845260005b81811015610df357602081850181015186830182015201610dd7565b506000602082860101526020601f19601f83011685010191505092915050565b606081526000610e266060830186610dcd565b8281036020840152610e388186610dcd565b90508281036040840152610e4c8185610dcd565b9695505050505050565b60006020808385031215610e6957600080fd5b823567ffffffffffffffff811115610e8057600080fd5b8301601f81018513610e9157600080fd5b8035610e9f610b5482610b0f565b81815260059190911b82018301908381019087831115610ebe57600080fd5b928401925b82841015610edc57833582529284019290840190610ec3565b979650505050505050565b60208082526029908201527f4f6e6c7920736d617274206163636f756e742063616e2063616c6c207468697360408201526810333ab731ba34b7b760b91b606082015260800190565b600181811c90821680610f4457607f821691505b602082108103610f6457634e487b7160e01b600052602260045260246000fd5b50919050565b601f821115610fb457600081815260208120601f850160051c81016020861015610f915750805b601f850160051c820191505b81811015610fb057828155600101610f9d565b5050505b505050565b815167ffffffffffffffff811115610fd357610fd36109b7565b610fe781610fe18454610f30565b84610f6a565b602080601f83116001811461101c57600084156110045750858301515b600019600386901b1c1916600185901b178555610fb0565b600085815260208120601f198616915b8281101561104b5788860151825594840194600190910190840161102c565b50858210156110695787850151600019600388901b60f8161c191681555b5050505050600190811b01905550565b634e487b7160e01b600052601160045260246000fd5b818103818111156110a2576110a2611079565b92915050565b6080815260006110bb6080830187610dcd565b82810360208401526110cd8187610dcd565b905082810360408401526110e18186610dcd565b91505082606083015295945050505050565b634e487b7160e01b600052603260045260246000fd5b60006001820161111b5761111b611079565b5060010190565b63ffffffff8516815283602082015260606040820152816060820152818360808301376000818301608090810191909152601f909201601f191601019392505050565b60006020828403121561117757600080fd5b505191905056fea264697066735822122033b0ad8c2edb93742894c179d88f5ddeaf4501d8a8c4f976d55252ad70f1431864736f6c63430008130033",
    "linkReferences": {}
  },
  "methodIdentifiers": {
    "addMultipleProducts(string[],string[],string[])": "48b437dc",
    "addProduct(string,string,string)": "0e34b00e",
    "chainIdsToPropagateTo(uint256)": "3d90b42f",
    "changeGasAmount(uint256)": "bc4a3fbd",
    "changeInterchainGasPaymasterAddress(address)": "6b81e5c4",
    "changeMailboxAddress(address)": "a3ba7745",
    "igp()": "f28b2daa",
    "interchainGasPaymasterAddress()": "af4f918c",
    "mailbox()": "d5438eae",
    "mailboxAddress()": "d8f62f87",
    "propagateProductDetailsToDifferentChains(uint256,string,string,string)": "bf523e45",
    "sendInterchainCall(uint32,bytes32,bytes)": "8f6710ff",
    "smartAccountToInventory(address,uint256)": "c0c62756",
    "updateChainIdsToPropagateTo(uint256[])": "e7ced23a"
  },
  "id": 5
}