{
  "abi": [
    {
      "inputs": [
        {
          "internalType": "uint256",
          "name": "major",
          "type": "uint256"
        },
        {
          "internalType": "uint256",
          "name": "minor",
          "type": "uint256"
        },
        {
          "internalType": "uint256",
          "name": "patch",
          "type": "uint256"
        }
      ],
      "stateMutability": "nonpayable",
      "type": "constructor"
    },
    {
      "inputs": [],
      "name": "version",
      "outputs": [
        {
          "internalType": "string",
          "name": "",
          "type": "string"
        }
      ],
      "stateMutability": "view",
      "type": "function"
    }
  ],
  "bytecode": {
    "object": "0x60e060405234801561001057600080fd5b506040516103f43803806103f483398101604081905261002f91610040565b60809290925260a05260c05261006e565b60008060006060848603121561005557600080fd5b8351925060208401519150604084015190509250925092565b60805160a05160c05161035a61009a600039600060a701526000607e015260006055015261035a6000f3fe608060405234801561001057600080fd5b506004361061002b5760003560e01c806354fd4d5014610030575b600080fd5b61003861004e565b6040516100459190610281565b60405180910390f35b60606100797f00000000000000000000000000000000000000000000000000000000000000006100f1565b6100a27f00000000000000000000000000000000000000000000000000000000000000006100f1565b6100cb7f00000000000000000000000000000000000000000000000000000000000000006100f1565b6040516020016100dd939291906102b4565b604051602081830303815290604052905090565b606060006100fe83610184565b600101905060008167ffffffffffffffff81111561011e5761011e61030e565b6040519080825280601f01601f191660200182016040528015610148576020820181803683370190505b5090508181016020015b600019016f181899199a1a9b1b9c1cb0b131b232b360811b600a86061a8153600a850494508461015257509392505050565b60008072184f03e93ff9f4daa797ed6e38ed64bf6a1f0160401b83106101c35772184f03e93ff9f4daa797ed6e38ed64bf6a1f0160401b830492506040015b6d04ee2d6d415b85acef810000000083106101ef576d04ee2d6d415b85acef8100000000830492506020015b662386f26fc10000831061020d57662386f26fc10000830492506010015b6305f5e1008310610225576305f5e100830492506008015b612710831061023957612710830492506004015b6064831061024b576064830492506002015b600a8310610257576001015b92915050565b60005b83811015610278578181015183820152602001610260565b50506000910152565b60208152600082518060208401526102a081604085016020870161025d565b601f01601f19169190910160400192915050565b600084516102c681846020890161025d565b8083019050601760f91b80825285516102e6816001850160208a0161025d565b6001920191820152835161030181600284016020880161025d565b0160020195945050505050565b634e487b7160e01b600052604160045260246000fdfea26469706673582212204d690773ac7a37f14259cc00f8c0e07fbf96a0d7a456edabb8dd4e8585c622f964736f6c63430008130033",
    "linkReferences": {}
  },
  "methodIdentifiers": {
    "version()": "54fd4d50"
  },
  "id": 21
}