{
  "abi": [
    {
      "inputs": [
        {
          "internalType": "contract IEAS",
          "name": "_eas",
          "type": "address"
        }
      ],
      "stateMutability": "nonpayable",
      "type": "constructor"
    },
    {
      "inputs": [],
      "name": "AccessDenied",
      "type": "error"
    },
    {
      "inputs": [],
      "name": "InsufficientValue",
      "type": "error"
    },
    {
      "inputs": [],
      "name": "InvalidEAS",
      "type": "error"
    },
    {
      "inputs": [],
      "name": "NotPayable",
      "type": "error"
    },
    {
      "inputs": [
        {
          "components": [
            {
              "internalType": "bytes32",
              "name": "uid",
              "type": "bytes32"
            },
            {
              "internalType": "bytes32",
              "name": "schema",
              "type": "bytes32"
            },
            {
              "internalType": "uint64",
              "name": "time",
              "type": "uint64"
            },
            {
              "internalType": "uint64",
              "name": "expirationTime",
              "type": "uint64"
            },
            {
              "internalType": "uint64",
              "name": "revocationTime",
              "type": "uint64"
            },
            {
              "internalType": "bytes32",
              "name": "refUID",
              "type": "bytes32"
            },
            {
              "internalType": "address",
              "name": "recipient",
              "type": "address"
            },
            {
              "internalType": "address",
              "name": "attester",
              "type": "address"
            },
            {
              "internalType": "bool",
              "name": "revocable",
              "type": "bool"
            },
            {
              "internalType": "bytes",
              "name": "data",
              "type": "bytes"
            }
          ],
          "internalType": "struct Attestation",
          "name": "attestation",
          "type": "tuple"
        }
      ],
      "name": "attest",
      "outputs": [
        {
          "internalType": "bool",
          "name": "",
          "type": "bool"
        }
      ],
      "stateMutability": "payable",
      "type": "function"
    },
    {
      "inputs": [],
      "name": "isPayable",
      "outputs": [
        {
          "internalType": "bool",
          "name": "",
          "type": "bool"
        }
      ],
      "stateMutability": "pure",
      "type": "function"
    },
    {
      "inputs": [
        {
          "components": [
            {
              "internalType": "bytes32",
              "name": "uid",
              "type": "bytes32"
            },
            {
              "internalType": "bytes32",
              "name": "schema",
              "type": "bytes32"
            },
            {
              "internalType": "uint64",
              "name": "time",
              "type": "uint64"
            },
            {
              "internalType": "uint64",
              "name": "expirationTime",
              "type": "uint64"
            },
            {
              "internalType": "uint64",
              "name": "revocationTime",
              "type": "uint64"
            },
            {
              "internalType": "bytes32",
              "name": "refUID",
              "type": "bytes32"
            },
            {
              "internalType": "address",
              "name": "recipient",
              "type": "address"
            },
            {
              "internalType": "address",
              "name": "attester",
              "type": "address"
            },
            {
              "internalType": "bool",
              "name": "revocable",
              "type": "bool"
            },
            {
              "internalType": "bytes",
              "name": "data",
              "type": "bytes"
            }
          ],
          "internalType": "struct Attestation[]",
          "name": "attestations",
          "type": "tuple[]"
        },
        {
          "internalType": "uint256[]",
          "name": "values",
          "type": "uint256[]"
        }
      ],
      "name": "multiAttest",
      "outputs": [
        {
          "internalType": "bool",
          "name": "",
          "type": "bool"
        }
      ],
      "stateMutability": "payable",
      "type": "function"
    },
    {
      "inputs": [
        {
          "components": [
            {
              "internalType": "bytes32",
              "name": "uid",
              "type": "bytes32"
            },
            {
              "internalType": "bytes32",
              "name": "schema",
              "type": "bytes32"
            },
            {
              "internalType": "uint64",
              "name": "time",
              "type": "uint64"
            },
            {
              "internalType": "uint64",
              "name": "expirationTime",
              "type": "uint64"
            },
            {
              "internalType": "uint64",
              "name": "revocationTime",
              "type": "uint64"
            },
            {
              "internalType": "bytes32",
              "name": "refUID",
              "type": "bytes32"
            },
            {
              "internalType": "address",
              "name": "recipient",
              "type": "address"
            },
            {
              "internalType": "address",
              "name": "attester",
              "type": "address"
            },
            {
              "internalType": "bool",
              "name": "revocable",
              "type": "bool"
            },
            {
              "internalType": "bytes",
              "name": "data",
              "type": "bytes"
            }
          ],
          "internalType": "struct Attestation[]",
          "name": "attestations",
          "type": "tuple[]"
        },
        {
          "internalType": "uint256[]",
          "name": "values",
          "type": "uint256[]"
        }
      ],
      "name": "multiRevoke",
      "outputs": [
        {
          "internalType": "bool",
          "name": "",
          "type": "bool"
        }
      ],
      "stateMutability": "payable",
      "type": "function"
    },
    {
      "inputs": [
        {
          "components": [
            {
              "internalType": "bytes32",
              "name": "uid",
              "type": "bytes32"
            },
            {
              "internalType": "bytes32",
              "name": "schema",
              "type": "bytes32"
            },
            {
              "internalType": "uint64",
              "name": "time",
              "type": "uint64"
            },
            {
              "internalType": "uint64",
              "name": "expirationTime",
              "type": "uint64"
            },
            {
              "internalType": "uint64",
              "name": "revocationTime",
              "type": "uint64"
            },
            {
              "internalType": "bytes32",
              "name": "refUID",
              "type": "bytes32"
            },
            {
              "internalType": "address",
              "name": "recipient",
              "type": "address"
            },
            {
              "internalType": "address",
              "name": "attester",
              "type": "address"
            },
            {
              "internalType": "bool",
              "name": "revocable",
              "type": "bool"
            },
            {
              "internalType": "bytes",
              "name": "data",
              "type": "bytes"
            }
          ],
          "internalType": "struct Attestation",
          "name": "attestation",
          "type": "tuple"
        }
      ],
      "name": "revoke",
      "outputs": [
        {
          "internalType": "bool",
          "name": "",
          "type": "bool"
        }
      ],
      "stateMutability": "payable",
      "type": "function"
    },
    {
      "inputs": [],
      "name": "version",
      "outputs": [
        {
          "internalType": "string",
          "name": "",
          "type": "string"
        }
      ],
      "stateMutability": "view",
      "type": "function"
    },
    {
      "stateMutability": "payable",
      "type": "receive"
    }
  ],
  "bytecode": {
    "object": "0x61010060405234801561001157600080fd5b506040516107f33803806107f383398101604081905261003091610079565b6001608081905260a052600060c052806001600160a01b038116610067576040516341bc07ff60e11b815260040160405180910390fd5b6001600160a01b031660e052506100a9565b60006020828403121561008b57600080fd5b81516001600160a01b03811681146100a257600080fd5b9392505050565b60805160a05160c05160e0516107116100e260003960006103ca01526000610170015260006101470152600061011e01526107116000f3fe6080604052600436106100595760003560e01c806354fd4d501461007c57806388e5b2d9146100a757806391db0b7e146100ca578063ce46e046146100dd578063e49617e1146100f1578063e60c35051461010457600080fd5b3661007757604051631574f9f360e01b815260040160405180910390fd5b600080fd5b34801561008857600080fd5b50610091610117565b60405161009e9190610506565b60405180910390f35b6100ba6100b5366004610585565b6101ba565b604051901515815260200161009e565b6100ba6100d8366004610585565b610269565b3480156100e957600080fd5b5060006100ba565b6100ba6100ff3660046105f1565b610308565b6100ba6101123660046105f1565b61031b565b60606101427f000000000000000000000000000000000000000000000000000000000000000061032c565b61016b7f000000000000000000000000000000000000000000000000000000000000000061032c565b6101947f000000000000000000000000000000000000000000000000000000000000000061032c565b6040516020016101a693929190610634565b604051602081830303815290604052905090565b60006101c46103bf565b833460005b828110156102595760008686838181106101e5576101e561068e565b9050602002013590508281111561020f5760405163044044a560e21b815260040160405180910390fd5b61023c8989848181106102245761022461068e565b905060200281019061023691906106a4565b50600190565b61024d576000945050505050610261565b909103906001016101c9565b506001925050505b949350505050565b60006102736103bf565b833460005b828110156102595760008686838181106102945761029461068e565b905060200201359050828111156102be5760405163044044a560e21b815260040160405180910390fd5b6102eb8989848181106102d3576102d361068e565b90506020028101906102e591906106a4565b50600090565b6102fc576000945050505050610261565b90910390600101610278565b60006103126103bf565b60015b92915050565b60006103256103bf565b6000610315565b606060006103398361040a565b600101905060008167ffffffffffffffff811115610359576103596106c5565b6040519080825280601f01601f191660200182016040528015610383576020820181803683370190505b5090508181016020015b600019016f181899199a1a9b1b9c1cb0b131b232b360811b600a86061a8153600a850494508461038d57509392505050565b336001600160a01b037f0000000000000000000000000000000000000000000000000000000000000000161461040857604051634ca8886760e01b815260040160405180910390fd5b565b60008072184f03e93ff9f4daa797ed6e38ed64bf6a1f0160401b83106104495772184f03e93ff9f4daa797ed6e38ed64bf6a1f0160401b830492506040015b6d04ee2d6d415b85acef81000000008310610475576d04ee2d6d415b85acef8100000000830492506020015b662386f26fc10000831061049357662386f26fc10000830492506010015b6305f5e10083106104ab576305f5e100830492506008015b61271083106104bf57612710830492506004015b606483106104d1576064830492506002015b600a83106103155760010192915050565b60005b838110156104fd5781810151838201526020016104e5565b50506000910152565b60208152600082518060208401526105258160408501602087016104e2565b601f01601f19169190910160400192915050565b60008083601f84011261054b57600080fd5b50813567ffffffffffffffff81111561056357600080fd5b6020830191508360208260051b850101111561057e57600080fd5b9250929050565b6000806000806040858703121561059b57600080fd5b843567ffffffffffffffff808211156105b357600080fd5b6105bf88838901610539565b909650945060208701359150808211156105d857600080fd5b506105e587828801610539565b95989497509550505050565b60006020828403121561060357600080fd5b813567ffffffffffffffff81111561061a57600080fd5b8201610140818503121561062d57600080fd5b9392505050565b600084516106468184602089016104e2565b8083019050601760f91b8082528551610666816001850160208a016104e2565b600192019182015283516106818160028401602088016104e2565b0160020195945050505050565b634e487b7160e01b600052603260045260246000fd5b6000823561013e198336030181126106bb57600080fd5b9190910192915050565b634e487b7160e01b600052604160045260246000fdfea26469706673582212201601fa0bc624511f53d4ae5321d91e41cd535bdf86df719a99162d1c9e4b589564736f6c63430008130033",
    "linkReferences": {}
  },
  "methodIdentifiers": {
    "attest((bytes32,bytes32,uint64,uint64,uint64,bytes32,address,address,bool,bytes))": "e60c3505",
    "isPayable()": "ce46e046",
    "multiAttest((bytes32,bytes32,uint64,uint64,uint64,bytes32,address,address,bool,bytes)[],uint256[])": "91db0b7e",
    "multiRevoke((bytes32,bytes32,uint64,uint64,uint64,bytes32,address,address,bool,bytes)[],uint256[])": "88e5b2d9",
    "revoke((bytes32,bytes32,uint64,uint64,uint64,bytes32,address,address,bool,bytes))": "e49617e1",
    "version()": "54fd4d50"
  },
  "id": 4
}